{
  "contractName": "Document",
  "abi": [
    {
      "constant": true,
      "inputs": [],
      "name": "docCount",
      "outputs": [
        {
          "name": "",
          "type": "uint256"
        }
      ],
      "payable": false,
      "stateMutability": "view",
      "type": "function",
      "signature": "0x4c4dc6e0"
    },
    {
      "constant": true,
      "inputs": [
        {
          "name": "",
          "type": "uint256"
        }
      ],
      "name": "document",
      "outputs": [
        {
          "name": "",
          "type": "string"
        }
      ],
      "payable": false,
      "stateMutability": "view",
      "type": "function",
      "signature": "0x7fb173af"
    },
    {
      "constant": false,
      "inputs": [
        {
          "name": "_docHash",
          "type": "string"
        }
      ],
      "name": "addDocument",
      "outputs": [],
      "payable": false,
      "stateMutability": "nonpayable",
      "type": "function",
      "signature": "0xf740e045"
    },
    {
      "constant": false,
      "inputs": [
        {
          "name": "_index",
          "type": "uint256"
        }
      ],
      "name": "removeDocument",
      "outputs": [],
      "payable": false,
      "stateMutability": "nonpayable",
      "type": "function",
      "signature": "0xd5df7559"
    },
    {
      "constant": true,
      "inputs": [
        {
          "name": "_docCount",
          "type": "uint256"
        }
      ],
      "name": "getDocument",
      "outputs": [
        {
          "name": "",
          "type": "string"
        }
      ],
      "payable": false,
      "stateMutability": "view",
      "type": "function",
      "signature": "0x3f9b250a"
    },
    {
      "constant": true,
      "inputs": [],
      "name": "getCount",
      "outputs": [
        {
          "name": "",
          "type": "uint256"
        }
      ],
      "payable": false,
      "stateMutability": "view",
      "type": "function",
      "signature": "0xa87d942c"
    }
  ],
  "bytecode": "0x6080604052600060015534801561001557600080fd5b50610772806100256000396000f3fe608060405260043610610078576000357c0100000000000000000000000000000000000000000000000000000000900463ffffffff1680633f9b250a1461007d5780634c4dc6e0146101315780637fb173af1461015c578063a87d942c14610210578063d5df75591461023b578063f740e04514610276575b600080fd5b34801561008957600080fd5b506100b6600480360360208110156100a057600080fd5b810190808035906020019092919050505061033e565b6040518080602001828103825283818151815260200191508051906020019080838360005b838110156100f65780820151818401526020810190506100db565b50505050905090810190601f1680156101235780820380516001836020036101000a031916815260200191505b509250505060405180910390f35b34801561013d57600080fd5b506101466103f9565b6040518082815260200191505060405180910390f35b34801561016857600080fd5b506101956004803603602081101561017f57600080fd5b81019080803590602001909291905050506103ff565b6040518080602001828103825283818151815260200191508051906020019080838360005b838110156101d55780820151818401526020810190506101ba565b50505050905090810190601f1680156102025780820380516001836020036101000a031916815260200191505b509250505060405180910390f35b34801561021c57600080fd5b506102256104ba565b6040518082815260200191505060405180910390f35b34801561024757600080fd5b506102746004803603602081101561025e57600080fd5b81019080803590602001909291905050506104c4565b005b34801561028257600080fd5b5061033c6004803603602081101561029957600080fd5b81019080803590602001906401000000008111156102b657600080fd5b8201836020820111156102c857600080fd5b803590602001918460018302840111640100000000831117156102ea57600080fd5b91908080601f016020809104026020016040519081016040528093929190818152602001838380828437600081840152601f19601f82011690508083019250505050505050919291929050505061057e565b005b606060008281548110151561034f57fe5b906000526020600020018054600181600116156101000203166002900480601f0160208091040260200160405190810160405280929190818152602001828054600181600116156101000203166002900480156103ed5780601f106103c2576101008083540402835291602001916103ed565b820191906000526020600020905b8154815290600101906020018083116103d057829003601f168201915b50505050509050919050565b60015481565b60008181548110151561040e57fe5b906000526020600020016000915090508054600181600116156101000203166002900480601f0160208091040260200160405190810160405280929190818152602001828054600181600116156101000203166002900480156104b25780601f10610487576101008083540402835291602001916104b2565b820191906000526020600020905b81548152906001019060200180831161049557829003601f168201915b505050505081565b6000600154905090565b60008190505b60016000805490500381101561053c576000600182018154811015156104ec57fe5b9060005260206000200160008281548110151561050557fe5b90600052602060002001908054600181600116156101000203166002900461052e9291906105d2565b5080806001019150506104ca565b506000805480151561054a57fe5b6001900381819060005260206000200160006105669190610659565b90556001600081548092919060019003919050555050565b60008190806001815401808255809150509060018203906000526020600020016000909192909190915090805190602001906105bb9291906106a1565b505060016000815480929190600101919050555050565b828054600181600116156101000203166002900490600052602060002090601f016020900481019282601f1061060b5780548555610648565b8280016001018555821561064857600052602060002091601f016020900482015b8281111561064757825482559160010191906001019061062c565b5b5090506106559190610721565b5090565b50805460018160011615610100020316600290046000825580601f1061067f575061069e565b601f01602090049060005260206000209081019061069d9190610721565b5b50565b828054600181600116156101000203166002900490600052602060002090601f016020900481019282601f106106e257805160ff1916838001178555610710565b82800160010185558215610710579182015b8281111561070f5782518255916020019190600101906106f4565b5b50905061071d9190610721565b5090565b61074391905b8082111561073f576000816000905550600101610727565b5090565b9056fea165627a7a72305820e3f35afcea76d11eb4088e1d80387accd88e3e6808d9e63b6c31c52161c24c590029",
  "source": "pragma solidity ^0.5.0;\n\ncontract Document {\n  string[] public document;\n  uint256 public docCount = 0;\n\n  function addDocument(string memory _docHash) public {\n    document.push(_docHash);\n    docCount++;\n  }\n\n  function removeDocument(uint256 _index) public{\n    for(uint i = _index; i < document.length-1; i++){\n      document[i] = document[i+1];\n    }\n    document.pop();\n    docCount--;\n  }\n\n  function getDocument(uint256 _docCount) public view returns (string memory) {\n    return document[_docCount];\n  }\n\n  function getCount() public view returns (uint256) {\n    return docCount;\n  }\n}\n",
  "sourcePath": "/home/mritunjay/Documents/Blockchain/DMS/src/contracts/Document.sol",
  "compiler": {
    "name": "solc",
    "version": "0.5.0+commit.1d4f565a.Emscripten.clang"
  },
  "schemaVersion": "3.0.1",
  "updatedAt": "2022-04-17T11:47:37.284Z",
  "devdoc": {
    "methods": {}
  },
  "userdoc": {
    "methods": {}
  }
}